:020000040800F2
:1000000000800120B5030008DD010008DF010008C1
:10001000E1010008E3010008E5010008000000001C
:10002000000000000000000000000000E7010008E0
:10003000E901000800000000EB010008ED010008E4
:10004000050400080504000805040008050400086C
:10005000050400080504000805040008050400085C
:10006000050400080504000805040008050400084C
:10007000050400080504000805040008050400083C
:10008000050400080504000805040008000000003D
:10009000000000000000000000000000050400084F
:1000A000050400080504000805040008050400080C
:1000B00005040008050400080504000805040008FC
:1000C00005040008050400080504000805040008EC
:1000D00005040008050400080504000800000000ED
:1000E00005040008050400080504000800000000DD
:1000F00000000000000000000000000005040008EF
:1001000000000000050400080504000805040008BC
:1001100000000000000000000000000000000000DF
:10012000050400080504000805040008050400088B
:1001300005040008000000000000000000000000AE
:10014000000000000000000000000000050400089E
:10015000050400080504000805040008050400085B
:10016000050400080504000800000000000000006D
:10017000000000000000000000000000000000007F
:10018000000000000504000800000000000000005E
:04019000050400085A
:1001940010B5054C237833B9044B13B10448AFF3BD
:1001A40000800123237010BD0C000020000000001B
:1001B4005004000808B5034B1BB103490348AFF3CF
:1001C400008008BD0000000010000020500400085A
:1001D40008B500F0BDF8FEE7FEE7FEE7FEE7FEE740
:1001E400FEE770477047704708B500F0CBF808BDCC
:1001F40000B583B0002100910C4B5A6C42F480424C
:100204005A645A6C02F480420092009A01911A6C6A
:1002140042F080521A641B6C03F080530193019BDB
:10022400072000F039F803B05DF804FB0038024001
:10023400002808DB0901C9B200F1604000F5614003
:1002440080F80013704700F00F000901C9B2014B98
:100254001954704714ED00E000B500F00700C0F138
:10026400070CBCF1040F28BF4FF0040C031D062B30
:100274000FD9C31E4FF0FF3E0EFA0CF021EA000125
:1002840099400EFA03FE22EA0E0241EA02005DF8EA
:1002940004FB0023EEE70000074AD36823F4E0637D
:1002A4001B041B0C000200F4E060034343F0BF6333
:1002B40043F40033D360704700ED00E010B504460A
:1002C400054BD868C0F30220FFF7C6FF014620465D
:1002D400FFF7AEFF10BD00BF00ED00E00138B0F144
:1002E400807F0BD24FF0E0235861054AF02182F859
:1002F40023100020986107221A617047012070477B
:1003040000ED00E010B504460E4B1A784FF47A73F2
:10031400B3FBF2F30C4A1068B0FBF3F0FFF7DEFF17
:1003240068B90F2C01D901200AE0002221464FF0C0
:10033400FF30FFF7C3FF054B1C60002000E00120E5
:1003440010BD00BF000000200800002004000020B1
:1003540008B50B4B1A6842F400721A601A6842F42A
:1003640080621A601A6842F480721A600320FFF7F0
:1003740093FF0020FFF7C6FFFFF73AFF002008BDF8
:10038400003C0240034A1168034B1B780B44136082
:10039400704700BF2800002000000020034AD2F864
:1003A400883043F47003C2F88830704700ED00E0F1
:1003B400DFF834D00D480E490E4A002302E0D45829
:1003C400C4500433C4188C42F9D30B4A0B4C002399
:1003D40001E013600432A242FBD3FFF7DFFF00F019
:1003E40011F8FFF7F5FE704700800120000000209F
:1003F4000C000020700400080C0000202C000020D9
:10040400FEE7000070B50D4D0D4C641BA4100026D2
:10041400A64209D10B4D0C4C00F018F8641BA41033
:100424000026A64205D170BD55F8043B9847013615
:10043400EEE755F8043B98470136F2E768040008F4
:1004440068040008680400086C040008F8B500BFDC
:10045400F8BC08BC9E467047F8B500BFF8BC08BCA1
:040464009E467047F9
:04046800B9010008CE
:04046C0095010008EE
:0C04700001000000100000000024F40057
:04000005080003B537
:00000001FF
